:100000000C9446000C946B000C946B000C946B00E9
:100010000C946B000C946B000C946B000C946B00B4
:100020000C946B000C946B000C946B000C946B00A4
:100030000C946B000C946B000C946B000C946B0094
:100040000C946B000C946B000C946B000C946B0084
:100050000C946B000C946B000C946B000C946B0074
:100060000C946B000C946B000C946B000C946B0064
:100070000C946B000C946B000C946B000C946B0054
:100080000C946B000C946B000C946B0011241FBE3D
:10009000CFEFD0E1DEBFCDBF0E9453000C945000E3
:0400A000F894FFCF02
:0200A4006100F9
:1000A60083E390E00E945E0084EA90E0A0E0805244
:0600B6000E946700F9CF73
:1000BC009093900089B988E18AB986E08093950085
:0200CC00089595
:0800CE005D9BFECF8CB9089583
:0400D6000C94000086
:00000001FF
