:100000000C9446000C9476000C9476000C947600C8
:100010000C9476000C9476000C9476000C94760088
:100020000C9476000C9476000C9476000C94760078
:100030000C9476000C9476000C9476000C94760068
:100040000C9476000C9476000C9476000C94760058
:100050000C9476000C9476000C9476000C94760048
:100060000C9476000C9476000C9476000C94760038
:100070000C9476000C9476000C9476000C94760028
:100080000C9476000C9476000C94760011241FBE1C
:10009000CFEFD0E1DEBFCDBF0E9452000C945000E4
:0400A000F894FFCF02
:1000A40083E390E00E9460000E946900C8E7CFB932
:0C00B4000E947200C82F0E946E00F9CF5D
:1000C0009093900089B988E18AB986E08093950081
:0200D000089591
:0A00D20088E087BB80E48DB9089533
:0800DC005D9BFECF8CB9089575
:0800E400779BFECF8FB1089558
:0400EC000C94000070
:00000001FF
