:100000000C9446000C947A000C947A000C947A00BC
:100010000C947A000C947A000C947A000C947A0078
:100020000C947A000C947A000C947A000C947A0068
:100030000C947A000C947A000C947A000C947A0058
:100040000C947A000C947A000C947A000C947A0048
:100050000C947A000C947A000C947A000C947A0038
:100060000C947A000C947A000C947A000C947A0028
:100070000C947A000C947A000C947A000C947A0018
:100080000C947A000C947A000C947A0011241FBE10
:10009000CFEFD0E1DEBFCDBF0E9452000C945000E4
:0400A000F894FFCF02
:1000A40083E390E00E9460000E9469000E94720055
:0C00B4000E9476008FB10E946E00F8CF11
:1000C0009093900089B988E18AB986E08093950081
:0200D000089591
:0A00D20087E087BB81E58DB9089532
:0800DC005D9BFECF8CB9089575
:0800E4005F9BFECF8CB1089573
:0800EC008FB9779BFECF089548
:0400F4000C94000068
:00000001FF
