:100000000C9446000C9473000C9473000C947300D1
:100010000C9473000C9473000C9473000C94730094
:100020000C9473000C9473000C9473000C94730084
:100030000C9473000C9473000C9473000C94730074
:100040000C9473000C9473000C9473000C94730064
:100050000C9473000C9473000C9473000C94730054
:100060000C9473000C9473000C9473000C94730044
:100070000C9473000C9473000C9473000C94730034
:100080000C9473000C9473000C94730011241FBE25
:10009000CFEFD0E1DEBFCDBF0E9452000C945000E4
:0400A000F894FFCF02
:1000A40083E390E00E945D000E9466000E946B0062
:0600B4000E946F00FBCF6B
:1000BA009093900089B988E18AB986E08093950087
:0200CA00089597
:0A00CC0087E087BB81E58DB9089538
:0800D6005F9BFECF8CB1089581
:0800DE008FB9779BFECF089556
:0400E6000C94000076
:00000001FF
